:040000008A11112828
:10000800FE00030EF8000408F9000A08FA0083123B
:1000180003137F08FB008A1113288A11FB2D8B1309
:100028000B130B1D1828192836288B1E1C281D2871
:1000380036280B1181013F0840020318242825287F
:10004800272887112928871529280130F5007508E0
:10005800C0071A304002031C322833281D29C0016A
:100068001D291D298B1C39283A281D298B10871515
:100078000330F7000830F6007830F500F50B422819
:10008800F60B4228F70B4228003083120313A30013
:100098000030A2000030A1000030A000F428003099
:1000A8002302031D612800302202031D61289C30B1
:1000B8002102031D612840302002031C64286528A2
:1000C800802883160313E801831203130710051D04
:1000D8006E286F2880280330F7000830F600783043
:1000E800F500F50B7528F60B7528F70B75288B109E
:1000F8008B171F291F29802800308312031323061A
:10010800031D902806302206031D90281A30210668
:10011800031D902880302006031D93289428E32887
:10012800071405108B0181011716961697170B30C7
:10013800F7002630F6006630F500F50BA128F60B1F
:10014800A128F70BA128A82823308A11B6258A11DF
:1001580001308A11B6258A1152308A11B6258A11C2
:100168000B30F7002630F6006630F500F50BBA289C
:10017800F60BBA28F70BBA28C1283C308A11B625E5
:100188008A110B30F7002630F6006630F500F50BC3
:10019800CB28F60BCB28F70BCB28D22883160313D2
:1001A800E8017C1083120313BF0183160313850132
:1001B800870183120313850187010028E328013092
:1001C80083120313A007003003180130A107003081
:1001D80003180130A207003003180130A307F428E0
:1001E800051DF728F828532800302302031D062987
:1001F80000302202031D06299C302102031D062916
:1002080040302002031809290A2953287C180D298F
:100218000E2915290230F500750883160313E80026
:100228001D2983160313E8010314E80D1D291D2950
:100238001D298B170B177B0883120313FF007A08FD
:100248008A0079088400780E8300FE0E7E0E09006D
:1002580083120313AE0105308A1130258A118312E7
:1002680003132508B001B0072408AF01AF07051A2A
:100278003E293F294729851E422943294729AE019E
:100288000314AE0D7129051E4A294B295429851AD4
:100298004E294F2954290230AB002B08AE00712992
:1002A800051E572958296129851E5B295C29612962
:1002B8000330AB002B08AE007129851A6429652923
:1002C8007129051A6829692971290430AB002B089E
:1002D800AE00712971297129712942308A1194253A
:1002E8008A11831203132E08303E8A1194258A112D
:1002F8008312031330080339303E8A1194258A117A
:10030800831203133008AC002F08AB00043003102D
:10031800AC0CAB0CFF3E031D8B292B080F39303E6C
:100328008A1194258A11831203132F080F39303E3E
:100338008A1194258A110230831203133002DF30A8
:1003480003192F020318A929AA29E729AF01B00127
:1003580000303002053003192F02031CB429B529D7
:10036800B729E729E72907100B30AD002630AC0084
:100378006630AB00AB0BBE29AC0BBE29AD0BBE295A
:10038800C5298312031307140330AD000830AC00ED
:100398007830AB00AB0BCE29AC0BCE29AD0BCE29F8
:1003A800013083120313AF070318B00A0030B007F7
:1003B80000303002053003192F02031CE429E52917
:1003C800B729E729E7292E08043A031DEC29ED2966
:1003D8002A2AAF01B00100303002053003192F027C
:1003E800031CF729F829FA292A2A2A2A0710033090
:1003F800AD000830AC007830AB00AB0B012AAC0B79
:10040800012AAD0B012A8312031307140B30AD0028
:100418002630AC006630AB00AB0B102AAC0B102AB0
:10042800AD0B102A172A013083120313AF070318E4
:10043800B00A0030B00700303002053003192F022F
:10044800031C272A282AFA292A2A2A2A08000C30D3
:1004580083120313BD003D08BF0083160313E60192
:10046800E70100306702143003196602031C3D2AB5
:100478003E2A402A6A2A6A2A8312031387158B1296
:1004880006308A1130258A118B16AE308312031379
:10049800BE002730BD00BD0B4F2ABE0B4F2A64009B
:1004A8000130831203138706013083160313E6070E
:1004B8000318E70A0030E707003067021430031911
:1004C8006602031C682A692A402A6A2AE601E701AB
:1004D80000306702223003196602031C742A752A49
:1004E800772AAE2AAE2A8312031387158B12063099
:1004F8008A1130258A1183160313660883120313A1
:10050800BD003D07A03E8400240883138000840AB0
:10051800250880008B16AE30BE002730BD00BD0B0D
:10052800932ABE0B932A64000130831203138706B3
:10053800013083160313E6070318E70A0030E707BC
:1005480000306702223003196602031CAC2AAD2A68
:10055800772AAE2AA0308A1119238A11831203132D
:100568002D0883160313E501E507831203132C08EE
:1005780083160313E401E40741308A1194258A1194
:1005880083160313650883120313BE00831603132F
:10059800640883120313BD000C300310BE0CBD0C9D
:1005A800FF3E031DD12A3D080F39303E8A1194259C
:1005B8008A118316031365080F39303E8A11942572
:1005C8008A1183160313650883120313BE0083166A
:1005D8000313640883120313BD0004300310BE0C18
:1005E800BD0CFF3E031DF22A3D080F39303E8A112B
:1005F80094258A118316031364080F39303E8A1133
:1006080094258A11083083120313BD003D08BF00EA
:100618008A112C218A11023083120313BD003D0870
:1006280083160313E800182B080083120313BA007B
:10063800B801B901B601B701B401B501BB01BC01EC
:1006480000303C02223003193B02031C2C2B2D2BBB
:100658002F2B522B522B3B08AE002E073A07AF0028
:100668002F08840083130008B000840A0008B10032
:100678003008B8070318B90A3108B9070130BB07B1
:100688000318BC0A0030BC0700303C0222300319B2
:100698003B02031C502B512B2F2B522B2230A40032
:1006A8000030A5003908A701A7073808A601A60742
:1006B8008A1160248A11831203132508B901B90726
:1006C8002408B801B807BB01BC0100303C02223045
:1006D80003193B02031C712B722B742BDA2BDA2BB8
:1006E80038081E3EAE0039080318013E003EAF0030
:1006F8003B08B00030073A07B10031088400831383
:100708000008B200840A0008B3002F083302031D52
:100718008F2B2E0832020318922B932BCA2B3B08DF
:10072800AE002E073A07AF002F0884000008B0007B
:10073800840A0008B1003808E23EB20039080318FC
:10074800013EFF3EB30031083302031DAD2B3008D4
:1007580032020318B02BB12BCA2B0130B40703188F
:10076800B50A0030B5073B08AE002E073A07AF00C0
:100778002F0884000008B000840A0008B10030087F
:10078800B6070318B70A3108B707CA2B0130BB07E9
:100798000318BC0A0030BC0700303C0222300319A1
:1007A8003B02031CD82BD92B742BDA2B3508A50157
:1007B800A5073408A401A4073708A701A707360826
:1007C800A601A6078A1160248A118312031325083B
:1007D800B701B7072408B601B6073708AD01AD075A
:0A07E8003608AC01AC07F82B08003E
:1008000004308A000408840A8207003452346534B4
:10081000733465347434743469346E34673420341A
:100820006434653476346934633465342134203477
:1008300050346C3465346134733465342034773427
:100840006134693474342E342E342E340A34003436
:1008500053346F34663474347734613472346534AD
:1008600020347234653476346934733469346F34C7
:100870006E343A34203430342E34323433340A3443
:100880000034413454342B344E3441344D344534E7
:1008900073346F346334693461346C3461346E346E
:1008A00061346C3479347A346534723400344134D0
:1008B00054342B3452344534533445345434003496
:1008C00083120313A901AA01250824040319692C22
:1008D0006A2CA82CAB010314AB0D7A2C0130031049
:1008E000A40DA50DFF3E031D6F2C0130A8002808A4
:1008F000AB077A2CA51F7D2C7E2C6E2C802C802C97
:1009000001300310A90DAA0DFF3E031D812C2508FF
:100910002702031D8D2C24082602031C902C912CE9
:10092000992C2408A6022508031CA703A702291452
:10093000992C01300310A50CA40CFF3E031D9A2C2A
:100940000130AB02031DA52CA62C802CA82CA82CB2
:100950002A08A501A5072908A401A407AF2C0800AF
:100960003430831603138500263087008312031367
:100970008501093087001F141716961697177C14E7
:100980000B120B1181018B161830A4002408BF0034
:10099000A7010C302702031CCE2CCF2CD12CED2C20
:1009A000ED2C0B30A6002630A5006630A400A40B69
:1009B000D72CA50BD72CA60BD72CDE2C01308312FD
:1009C000031387060130A4002408A7070C30270270
:1009D000031CEB2CEC2CD12CED2C0830A4002408AB
:1009E000BF008B100B1608003430831603138500EC
:1009F00026308700013083120313850009308700F9
:100A00007730831603138F006030910060309F00B1
:100A10000430831203139600970108309100CF3001
:100A2000930083160313810115159C01E8017C10C6
:100A300083120313BF010B30A6002630A5006630D9
:100A4000A400A40B212DA50B212DA60B212D282DB3
:100A5000B0308B00FF308312031399000B1708008E
:100A600083120313AA002A08A60001300310A60D62
:100A7000FF3E031D362D0310260D81389F003430B4
:100A8000A700F130A600A60B432DA70B432D482D40
:100A9000831203139F144C2D9F184F2D502D4C2D56
:100AA000512D831603131E0883120313A600A701FA
:100AB0001E08A800A9012808A900A80126082804E2
:100AC000A40027082904A500652D08008A11F42434
:100AD0008A116A2D831603136808013A031D712DCC
:100AE000722D762D8A112B228A11822D83160313E3
:100AF000E808031D7C2D7D2D822D8A11D3258A11B6
:100B0000822D822D7C18852D862D6A2D8316031348
:100B10006808031D8C2D6A2D8A11B0248A116A2D54
:100B20006A2D6A2D8A11112883120313A400A501CE
:100B3000A601AD2D13302606031DA02D88302506F5
:100B4000031DA32DA42DA62DB52DB52D0130A50770
:100B50000318A60A0030A607AD2D961CB02DB12DA6
:100B60009A2DB22D24089500B52D0800F3007030A1
:100B7000F1007108F200C12D74088A11EF258A1165
:100B8000C12D0130F307FF30730784008A11002460
:100B90008A11F1007108F400F408031DD02DD12D45
:100BA000BC2DD22D08008B12831203131F101712B5
:100BB00096129713BF01871505147C1034308316E5
:100BC0000313850087010B30831203138500FE3069
:100BD00087008B100B1663000000EE2D0800F0005C
:100BE000F12D831203138C1CF62DF72DF12DF82D0A
:100BF000700895000800FC01BF01C00183160313B3
:080C0000E80183018A11662D51
:02400E00E4FCD0
:00000001FF
